{"abi":[{"type":"constructor","inputs":[{"name":"_shell","type":"uint256","internalType":"uint256"},{"name":"_number","type":"suint256","internalType":"suint256"}],"stateMutability":"nonpayable"},{"type":"function","name":"hit","inputs":[],"outputs":[],"stateMutability":"nonpayable"},{"type":"function","name":"look","inputs":[],"outputs":[{"name":"","type":"uint256","internalType":"uint256"}],"stateMutability":"view"},{"type":"function","name":"reset","inputs":[],"outputs":[],"stateMutability":"nonpayable"},{"type":"function","name":"shake","inputs":[],"outputs":[],"stateMutability":"nonpayable"},{"type":"event","name":"Hit","inputs":[{"name":"remaining","type":"uint256","indexed":false,"internalType":"uint256"}],"anonymous":false},{"type":"event","name":"Reset","inputs":[{"name":"remaining","type":"uint256","indexed":false,"internalType":"uint256"}],"anonymous":false},{"type":"event","name":"Shake","inputs":[],"anonymous":false}],"bytecode":{"object":"0x6080604052348015600e575f5ffd5b506040516102b03803806102b0833981016040819052602b916041565b5f82905560019190915560028190b16003b16062565b5f5f604083850312156051575f5ffd5b505080516020909101519092909150565b6102418061006f5f395ff3fe608060405234801561000f575f5ffd5b506004361061004a575f3560e01c80632ae3594a1461004e5780636c050eae14610058578063825f98d414610072578063d826f88f1461007a575b5f5ffd5b610056610082565b005b6100606100dc565b60405190815260200160405180910390f35b610056610128565b610056610166565b6001541561009f5760018054905f610099836101b7565b91905055505b7fdfbd041d9e9bba4bbf53e03af27b4d38f6e4d1fa96dedd0ce334528ecc5a66f96001546040516100d291815260200190565b60405180910390a1565b6001545f90156101215760405162461bcd60e51b815260206004820152600c60248201526b14d211531317d253951050d560a21b604482015260640160405180910390fd5b506003b090565b600380b0905f610137836101cc565b9091b150506040517f415bc319615b313a24ffa83809fb7cbe9df8880a3e26ce8f7e02f8b02dff85f0905f90a1565b5f5460018190556002b06003b16040519081527f01c3cbb0d62726ab09d163873ebf9aed99dd8dc08e57bc938f458132fd178cf6906020016100d2565b634e487b7160e01b5f52601160045260245ffd5b5f816101c5576101c56101a3565b505f190190565b5f600182016101dd576101dd6101a3565b506001019056fea26469706673582212203f77cecfeed1cf3cc2b087519b03da2f39871ef96c3025e09c42403f640f586164736f6c637829302e382e32382d646576656c6f702e323032342e31322e32332b636f6d6d69742e3034376138343033005a","linkReferences":{}},"methodIdentifiers":{"hit()":"2ae3594a","look()":"6c050eae","reset()":"d826f88f","shake()":"825f98d4"},"id":23}