{
  "abi": [
    {
      "type": "constructor",
      "inputs": [
        {
          "name": "admin",
          "type": "address",
          "internalType": "address"
        }
      ],
      "stateMutability": "nonpayable"
    },
    {
      "type": "function",
      "name": "BURNER_ROLE",
      "inputs": [],
      "outputs": [
        {
          "name": "",
          "type": "bytes32",
          "internalType": "bytes32"
        }
      ],
      "stateMutability": "view"
    },
    {
      "type": "function",
      "name": "DEFAULT_ADMIN_ROLE",
      "inputs": [],
      "outputs": [
        {
          "name": "",
          "type": "bytes32",
          "internalType": "bytes32"
        }
      ],
      "stateMutability": "view"
    },
    {
      "type": "function",
      "name": "MINTER_ROLE",
      "inputs": [],
      "outputs": [
        {
          "name": "",
          "type": "bytes32",
          "internalType": "bytes32"
        }
      ],
      "stateMutability": "view"
    },
    {
      "type": "function",
      "name": "ORACLE_ROLE",
      "inputs": [],
      "outputs": [
        {
          "name": "",
          "type": "bytes32",
          "internalType": "bytes32"
        }
      ],
      "stateMutability": "view"
    },
    {
      "type": "function",
      "name": "PAUSE_ROLE",
      "inputs": [],
      "outputs": [
        {
          "name": "",
          "type": "bytes32",
          "internalType": "bytes32"
        }
      ],
      "stateMutability": "view"
    },
    {
      "type": "function",
      "name": "addRewardMultiplier",
      "inputs": [
        {
          "name": "increment",
          "type": "uint256",
          "internalType": "uint256"
        }
      ],
      "outputs": [],
      "stateMutability": "nonpayable"
    },
    {
      "type": "function",
      "name": "allowance",
      "inputs": [
        {
          "name": "owner",
          "type": "saddress",
          "internalType": "saddress"
        },
        {
          "name": "spender",
          "type": "saddress",
          "internalType": "saddress"
        }
      ],
      "outputs": [
        {
          "name": "",
          "type": "uint256",
          "internalType": "uint256"
        }
      ],
      "stateMutability": "view"
    },
    {
      "type": "function",
      "name": "approve",
      "inputs": [
        {
          "name": "spender",
          "type": "saddress",
          "internalType": "saddress"
        },
        {
          "name": "amount",
          "type": "suint256",
          "internalType": "suint256"
        }
      ],
      "outputs": [
        {
          "name": "",
          "type": "bool",
          "internalType": "bool"
        }
      ],
      "stateMutability": "nonpayable"
    },
    {
      "type": "function",
      "name": "balanceOf",
      "inputs": [
        {
          "name": "account",
          "type": "saddress",
          "internalType": "saddress"
        }
      ],
      "outputs": [
        {
          "name": "",
          "type": "uint256",
          "internalType": "uint256"
        }
      ],
      "stateMutability": "view"
    },
    {
      "type": "function",
      "name": "burn",
      "inputs": [
        {
          "name": "from",
          "type": "saddress",
          "internalType": "saddress"
        },
        {
          "name": "amount",
          "type": "suint256",
          "internalType": "suint256"
        }
      ],
      "outputs": [],
      "stateMutability": "nonpayable"
    },
    {
      "type": "function",
      "name": "decimals",
      "inputs": [],
      "outputs": [
        {
          "name": "",
          "type": "uint8",
          "internalType": "uint8"
        }
      ],
      "stateMutability": "pure"
    },
    {
      "type": "function",
      "name": "decreaseAllowance",
      "inputs": [
        {
          "name": "spender",
          "type": "saddress",
          "internalType": "saddress"
        },
        {
          "name": "subtractedValue",
          "type": "suint256",
          "internalType": "suint256"
        }
      ],
      "outputs": [
        {
          "name": "",
          "type": "bool",
          "internalType": "bool"
        }
      ],
      "stateMutability": "nonpayable"
    },
    {
      "type": "function",
      "name": "emitApproval",
      "inputs": [
        {
          "name": "owner",
          "type": "address",
          "internalType": "address"
        },
        {
          "name": "spender",
          "type": "address",
          "internalType": "address"
        },
        {
          "name": "value",
          "type": "uint256",
          "internalType": "uint256"
        }
      ],
      "outputs": [],
      "stateMutability": "nonpayable"
    },
    {
      "type": "function",
      "name": "emitTransfer",
      "inputs": [
        {
          "name": "from",
          "type": "address",
          "internalType": "address"
        },
        {
          "name": "to",
          "type": "address",
          "internalType": "address"
        },
        {
          "name": "value",
          "type": "uint256",
          "internalType": "uint256"
        }
      ],
      "outputs": [],
      "stateMutability": "nonpayable"
    },
    {
      "type": "function",
      "name": "getCurrentRewardMultiplier",
      "inputs": [],
      "outputs": [
        {
          "name": "",
          "type": "uint256",
          "internalType": "uint256"
        }
      ],
      "stateMutability": "view"
    },
    {
      "type": "function",
      "name": "grantRole",
      "inputs": [
        {
          "name": "role",
          "type": "bytes32",
          "internalType": "bytes32"
        },
        {
          "name": "account",
          "type": "address",
          "internalType": "address"
        }
      ],
      "outputs": [],
      "stateMutability": "nonpayable"
    },
    {
      "type": "function",
      "name": "hasRole",
      "inputs": [
        {
          "name": "role",
          "type": "bytes32",
          "internalType": "bytes32"
        },
        {
          "name": "account",
          "type": "address",
          "internalType": "address"
        }
      ],
      "outputs": [
        {
          "name": "",
          "type": "bool",
          "internalType": "bool"
        }
      ],
      "stateMutability": "view"
    },
    {
      "type": "function",
      "name": "increaseAllowance",
      "inputs": [
        {
          "name": "spender",
          "type": "saddress",
          "internalType": "saddress"
        },
        {
          "name": "addedValue",
          "type": "suint256",
          "internalType": "suint256"
        }
      ],
      "outputs": [
        {
          "name": "",
          "type": "bool",
          "internalType": "bool"
        }
      ],
      "stateMutability": "nonpayable"
    },
    {
      "type": "function",
      "name": "mint",
      "inputs": [
        {
          "name": "to",
          "type": "saddress",
          "internalType": "saddress"
        },
        {
          "name": "amount",
          "type": "suint256",
          "internalType": "suint256"
        }
      ],
      "outputs": [],
      "stateMutability": "nonpayable"
    },
    {
      "type": "function",
      "name": "name",
      "inputs": [],
      "outputs": [
        {
          "name": "",
          "type": "string",
          "internalType": "string"
        }
      ],
      "stateMutability": "view"
    },
    {
      "type": "function",
      "name": "pause",
      "inputs": [],
      "outputs": [],
      "stateMutability": "nonpayable"
    },
    {
      "type": "function",
      "name": "paused",
      "inputs": [],
      "outputs": [
        {
          "name": "",
          "type": "bool",
          "internalType": "bool"
        }
      ],
      "stateMutability": "view"
    },
    {
      "type": "function",
      "name": "revokeRole",
      "inputs": [
        {
          "name": "role",
          "type": "bytes32",
          "internalType": "bytes32"
        },
        {
          "name": "account",
          "type": "address",
          "internalType": "address"
        }
      ],
      "outputs": [],
      "stateMutability": "nonpayable"
    },
    {
      "type": "function",
      "name": "safeAllowance",
      "inputs": [
        {
          "name": "owner",
          "type": "saddress",
          "internalType": "saddress"
        },
        {
          "name": "spender",
          "type": "saddress",
          "internalType": "saddress"
        }
      ],
      "outputs": [
        {
          "name": "",
          "type": "bool",
          "internalType": "bool"
        },
        {
          "name": "",
          "type": "uint256",
          "internalType": "uint256"
        }
      ],
      "stateMutability": "view"
    },
    {
      "type": "function",
      "name": "safeBalanceOf",
      "inputs": [
        {
          "name": "account",
          "type": "saddress",
          "internalType": "saddress"
        }
      ],
      "outputs": [
        {
          "name": "",
          "type": "bool",
          "internalType": "bool"
        },
        {
          "name": "",
          "type": "uint256",
          "internalType": "uint256"
        }
      ],
      "stateMutability": "view"
    },
    {
      "type": "function",
      "name": "sharesOf",
      "inputs": [
        {
          "name": "account",
          "type": "saddress",
          "internalType": "saddress"
        }
      ],
      "outputs": [
        {
          "name": "",
          "type": "uint256",
          "internalType": "uint256"
        }
      ],
      "stateMutability": "view"
    },
    {
      "type": "function",
      "name": "symbol",
      "inputs": [],
      "outputs": [
        {
          "name": "",
          "type": "string",
          "internalType": "string"
        }
      ],
      "stateMutability": "view"
    },
    {
      "type": "function",
      "name": "totalShares",
      "inputs": [],
      "outputs": [
        {
          "name": "",
          "type": "uint256",
          "internalType": "uint256"
        }
      ],
      "stateMutability": "view"
    },
    {
      "type": "function",
      "name": "totalSupply",
      "inputs": [],
      "outputs": [
        {
          "name": "",
          "type": "uint256",
          "internalType": "uint256"
        }
      ],
      "stateMutability": "view"
    },
    {
      "type": "function",
      "name": "transfer",
      "inputs": [
        {
          "name": "to",
          "type": "saddress",
          "internalType": "saddress"
        },
        {
          "name": "amount",
          "type": "suint256",
          "internalType": "suint256"
        }
      ],
      "outputs": [
        {
          "name": "",
          "type": "bool",
          "internalType": "bool"
        }
      ],
      "stateMutability": "nonpayable"
    },
    {
      "type": "function",
      "name": "transferFrom",
      "inputs": [
        {
          "name": "from",
          "type": "saddress",
          "internalType": "saddress"
        },
        {
          "name": "to",
          "type": "saddress",
          "internalType": "saddress"
        },
        {
          "name": "amount",
          "type": "suint256",
          "internalType": "suint256"
        }
      ],
      "outputs": [
        {
          "name": "",
          "type": "bool",
          "internalType": "bool"
        }
      ],
      "stateMutability": "nonpayable"
    },
    {
      "type": "function",
      "name": "unpause",
      "inputs": [],
      "outputs": [],
      "stateMutability": "nonpayable"
    },
    {
      "type": "event",
      "name": "Approval",
      "inputs": [
        {
          "name": "owner",
          "type": "address",
          "indexed": true,
          "internalType": "address"
        },
        {
          "name": "spender",
          "type": "address",
          "indexed": true,
          "internalType": "address"
        },
        {
          "name": "value",
          "type": "uint256",
          "indexed": false,
          "internalType": "uint256"
        }
      ],
      "anonymous": false
    },
    {
      "type": "event",
      "name": "Paused",
      "inputs": [
        {
          "name": "account",
          "type": "address",
          "indexed": false,
          "internalType": "address"
        }
      ],
      "anonymous": false
    },
    {
      "type": "event",
      "name": "RewardMultiplierUpdated",
      "inputs": [
        {
          "name": "newMultiplier",
          "type": "uint256",
          "indexed": false,
          "internalType": "uint256"
        }
      ],
      "anonymous": false
    },
    {
      "type": "event",
      "name": "RoleGranted",
      "inputs": [
        {
          "name": "role",
          "type": "bytes32",
          "indexed": true,
          "internalType": "bytes32"
        },
        {
          "name": "account",
          "type": "address",
          "indexed": true,
          "internalType": "address"
        },
        {
          "name": "sender",
          "type": "address",
          "indexed": true,
          "internalType": "address"
        }
      ],
      "anonymous": false
    },
    {
      "type": "event",
      "name": "RoleRevoked",
      "inputs": [
        {
          "name": "role",
          "type": "bytes32",
          "indexed": true,
          "internalType": "bytes32"
        },
        {
          "name": "account",
          "type": "address",
          "indexed": true,
          "internalType": "address"
        },
        {
          "name": "sender",
          "type": "address",
          "indexed": true,
          "internalType": "address"
        }
      ],
      "anonymous": false
    },
    {
      "type": "event",
      "name": "Transfer",
      "inputs": [
        {
          "name": "from",
          "type": "address",
          "indexed": true,
          "internalType": "address"
        },
        {
          "name": "to",
          "type": "address",
          "indexed": true,
          "internalType": "address"
        },
        {
          "name": "value",
          "type": "uint256",
          "indexed": false,
          "internalType": "uint256"
        }
      ],
      "anonymous": false
    },
    {
      "type": "event",
      "name": "Unpaused",
      "inputs": [
        {
          "name": "account",
          "type": "address",
          "indexed": false,
          "internalType": "address"
        }
      ],
      "anonymous": false
    },
    {
      "type": "error",
      "name": "ERC20InsufficientAllowance",
      "inputs": [
        {
          "name": "spender",
          "type": "address",
          "internalType": "address"
        },
        {
          "name": "allowance",
          "type": "uint256",
          "internalType": "uint256"
        },
        {
          "name": "needed",
          "type": "uint256",
          "internalType": "uint256"
        }
      ]
    },
    {
      "type": "error",
      "name": "ERC20InsufficientBalance",
      "inputs": [
        {
          "name": "sender",
          "type": "address",
          "internalType": "address"
        },
        {
          "name": "balance",
          "type": "uint256",
          "internalType": "uint256"
        },
        {
          "name": "needed",
          "type": "uint256",
          "internalType": "uint256"
        }
      ]
    },
    {
      "type": "error",
      "name": "ERC20InvalidApprover",
      "inputs": [
        {
          "name": "approver",
          "type": "address",
          "internalType": "address"
        }
      ]
    },
    {
      "type": "error",
      "name": "ERC20InvalidReceiver",
      "inputs": [
        {
          "name": "receiver",
          "type": "address",
          "internalType": "address"
        }
      ]
    },
    {
      "type": "error",
      "name": "ERC20InvalidSender",
      "inputs": [
        {
          "name": "sender",
          "type": "address",
          "internalType": "address"
        }
      ]
    },
    {
      "type": "error",
      "name": "ERC20InvalidSpender",
      "inputs": [
        {
          "name": "spender",
          "type": "address",
          "internalType": "address"
        }
      ]
    },
    {
      "type": "error",
      "name": "InvalidRewardMultiplier",
      "inputs": [
        {
          "name": "multiplier",
          "type": "uint256",
          "internalType": "uint256"
        }
      ]
    },
    {
      "type": "error",
      "name": "MissingRole",
      "inputs": [
        {
          "name": "role",
          "type": "bytes32",
          "internalType": "bytes32"
        },
        {
          "name": "account",
          "type": "address",
          "internalType": "address"
        }
      ]
    },
    {
      "type": "error",
      "name": "TransferWhilePaused",
      "inputs": []
    },
    {
      "type": "error",
      "name": "ZeroRewardIncrement",
      "inputs": []
    }
  ],
  "bytecode": {
    "object": "0x608060405234801561000f575f5ffd5b5060405161188c38038061188c83398101604081905261002e916101a7565b604051806040016040528060098152602001681554d108165a595b1960ba1b815250604051806040016040528060048152602001635553445960e01b815250816003908161007c919061026c565b506004610089828261026c565b5050506001600160a01b0381166100c25760405163ec442f0560e01b81526001600160a01b038216600482015260240160405180910390fd5b6100cc5f826100de565b50670de0b6b3a76400006005b1610326565b6100e88282610164565b610160575f8281526009602090815260408083206001600160a01b03851684529091529020805460ff1916600117905561011f3390565b6001600160a01b0316816001600160a01b0316837f2f8788117e7eff1d82e926ec794901d17c78024a50270940304540a733656f0d60405160405180910390a45b5050565b5f6001600160a01b03821661017a57505f6101a1565b505f8281526009602090815260408083206001600160a01b038516845290915290205460ff165b92915050565b5f602082840312156101b7575f5ffd5b81516001600160a01b03811681146101cd575f5ffd5b9392505050565b634e487b7160e01b5f52604160045260245ffd5b600181811c908216806101fc57607f821691505b60208210810361021a57634e487b7160e01b5f52602260045260245ffd5b50919050565b601f82111561026757805f5260205f20601f840160051c810160208510156102455750805b601f840160051c820191505b81811015610264575f8155600101610251565b50505b505050565b81516001600160401b03811115610285576102856101d4565b6102998161029384546101e8565b84610220565b6020601f8211600181146102cb575f83156102b45750848201515b5f19600385901b1c1916600184901b178455610264565b5f84815260208120601f198516915b828110156102fa57878501518255602094850194600190920191016102da565b508482101561031757868401515f19600387901b60f8161c191681555b50505050600190811b01905550565b611559806103335f395ff3fe608060405234801561000f575f5ffd5b50600436106101e7575f3560e01c80635687f2b811610109578063946db7471161009e578063be09129c1161006e578063be09129c14610423578063d539139314610436578063d547741f1461045d578063f43064fb14610470575f5ffd5b8063946db747146103ee57806395d89b4114610401578063a217fddf14610409578063aa8beaf014610410575f5ffd5b80638456cb59116100d95780638456cb59146103ad57806388412c20146103b55780638cdb7b34146103c857806391d14854146103db575f5ffd5b80635687f2b81461036957806359ecd7fc1461037c5780635c975abb1461038f5780635f84a3cd1461039a575f5ffd5b8063282c51f31161017f5780633a98ef391161014f5780633a98ef391461033e5780633ab43673146103465780633f4ba83a14610359578063542dc33e14610361575f5ffd5b8063282c51f3146102ce5780632f2ff15d146102f5578063313ce56714610308578063389ed26714610317575f5ffd5b806318160ddd116101ba57806318160ddd146102765780632176518a1461027e578063221b7180146102a857806323de6651146102bb575f5ffd5b806306fdde03146101eb57806307e2cea51461020957806314f228031461023e57806317d6dbde14610261575b5f5ffd5b6101f3610483565b6040516102009190611320565b60405180910390f35b6102307f68e79a7bf1e0bc45d0a330c573bc367f9cf464fd326078812f301165fbda4ef181565b604051908152602001610200565b61025161024c36600461136c565b610513565b6040519015158152602001610200565b61027461026f36600461136c565b61060c565b005b61023061069b565b61029161028c366004611396565b6106ac565b604080519215158352602083019190915201610200565b6102306102b63660046113cd565b61071a565b6102746102c93660046113ef565b610753565b6102307f3c11d16cbaffd01df69ce1c404f6340ee057498f5f00246190ea54220576a84881565b61027461030336600461142d565b6107a5565b60405160128152602001610200565b6102307f139c2898040ef16910dc9f44dc697df79363da767d8bc92f2e310312b816e46d81565b6007b0610230565b6102916103543660046113cd565b61081c565b610274610856565b6005b0610230565b6102746103773660046113ef565b610920565b61027461038a366004611450565b610965565b600a5460ff16610251565b6102306103a8366004611396565b610a5b565b610274610abf565b6102516103c336600461136c565b610b73565b6102516103d636600461136c565b610c28565b6102516103e936600461142d565b610c8b565b6102306103fc3660046113cd565b610ccc565b6101f3610cf8565b6102305f81565b61025161041e36600461136c565b610d07565b6102516104313660046113ef565b610d90565b6102307f9f2df0fed2c77648de5860a4cc508cd0818c85b8b8a1ab4ceeef8d981c8956a681565b61027461046b36600461142d565b610eb1565b61027461047e36600461136c565b610f28565b60606003805461049290611467565b80601f01602080910402602001604051908101604052809291908181526020018280546104be90611467565b80156105095780601f106104e057610100808354040283529160200191610509565b820191905f5260205f20905b8154815290600101906020018083116104ec57829003601f168201915b5050505050905090565b600a545f9060ff161561053957604051636c24c30160e01b815260040160405180910390fd5b336001600160a01b03841661056857604051634a1406b160e11b81525f60048201526024015b60405180910390fd5b6001600160a01b038082165f908152600860209081526040808320938816835292905220b0838110156105c757604051637dc7a0d960e11b81526001600160a01b0386166004820152602481018290526044810185905260640161055f565b6001600160a01b038281165f908152600860209081526040808320938916835292905220848203908190b16105ff9083908790610920565b6001925050505b92915050565b7f3c11d16cbaffd01df69ce1c404f6340ee057498f5f00246190ea54220576a848336106388282610c8b565b610667576040516301d4003760e61b8152600481018390526001600160a01b038216602482015260440161055f565b600a5460ff161561068b57604051636c24c30160e01b815260040160405180910390fd5b6106958484610fb1565b50505050565b5f6106a76007b0610fe9565b905090565b5f80336001600160a01b0385168114806106d75750836001600160a01b0316816001600160a01b0316145b1561070b575050506001600160a01b038083165f9081526001602081815260408084209486168452939052919020b0610713565b5f5f92509250505b9250929050565b5f336001600160a01b0383160361074c576001600160a01b0382165f908152600660205260409020b061060690610fe9565b505f919050565b816001600160a01b0316836001600160a01b03167fddf252ad1be2c89b69c2b068fc378daa952ba7f163c4a11628f55a4df523b3ef8360405161079891815260200190565b60405180910390a3505050565b5f336107b18282610c8b565b6107e0576040516301d4003760e61b8152600481018390526001600160a01b038216602482015260440161055f565b6001600160a01b0383166108125760405163ec442f0560e01b81526001600160a01b038416600482015260240161055f565b610695848461100b565b5f80336001600160a01b0384160361084c5750506001600160a01b03165f908152602081905260409020b0600191565b505f928392509050565b7f139c2898040ef16910dc9f44dc697df79363da767d8bc92f2e310312b816e46d336108828282610c8b565b6108b1576040516301d4003760e61b8152600481018390526001600160a01b038216602482015260440161055f565b600a5460ff166108d457604051636c24c30160e01b815260040160405180910390fd5b600a805460ff191690557f5db9ee0a495bf2e6ff9c91a7834c1ba4fdd244a5e8aa4e537bd38aeae4b073aa335b6040516001600160a01b03909116815260200160405180910390a15050565b816001600160a01b0316836001600160a01b03167f8c5be1e5ebec7d5bd14f71427d1e84f3dd0314c0f7b2291e5b200ac8c7c3b9258360405161079891815260200190565b7f68e79a7bf1e0bc45d0a330c573bc367f9cf464fd326078812f301165fbda4ef1336109918282610c8b565b6109c0576040516301d4003760e61b8152600481018390526001600160a01b038216602482015260440161055f565b825f036109e0576040516391f3272f60e01b815260040160405180910390fd5b5f836005b06109ef91906114b3565b9050670de0b6b3a7640000811015610a1d576040516354d47a9f60e11b81526004810182905260240161055f565b60058190b16040518181527f2dc77efcef672c24de8314e0bc5c0937b13d1d8c4ccea4acf5246edf821b93d59060200160405180910390a150505050565b5f336001600160a01b038416811480610a855750826001600160a01b0316816001600160a01b0316145b15610ab65750506001600160a01b038083165f908152600860209081526040808320938516835292905220b0610606565b505f9392505050565b7f139c2898040ef16910dc9f44dc697df79363da767d8bc92f2e310312b816e46d33610aeb8282610c8b565b610b1a576040516301d4003760e61b8152600481018390526001600160a01b038216602482015260440161055f565b600a5460ff1615610b3e57604051636c24c30160e01b815260040160405180910390fd5b600a805460ff191660011790557f62e78cea01bee320cd4e420270b5ea74000d11b0c9f74754ebdbfc544b05a2586109013390565b600a545f9060ff1615610b9957604051636c24c30160e01b815260040160405180910390fd5b336001600160a01b038416610bc357604051634a1406b160e11b81525f600482015260240161055f565b6001600160a01b038116610bec57604051634a1406b160e11b81525f600482015260240161055f565b6001600160a01b038082165f9081526008602090815260408083209388168352929052208390b1610c1e818585610920565b5060019392505050565b600a545f9060ff1615610c4e57604051636c24c30160e01b815260040160405180910390fd5b6001600160a01b038316610c775760405163ec442f0560e01b81525f600482015260240161055f565b610c82338484611090565b50600192915050565b5f6001600160a01b038216610ca157505f610606565b505f9182526009602090815260408084206001600160a01b0393909316845291905290205460ff1690565b5f336001600160a01b0383160361074c57506001600160a01b03165f908152600660205260409020b090565b60606004805461049290611467565b600a545f9060ff1615610d2d57604051636c24c30160e01b815260040160405180910390fd5b336001600160a01b038416610d5757604051634a1406b160e11b81525f600482015260240161055f565b6001600160a01b038181165f90815260086020908152604080832093881683529290522080b08401908190b1610c1e9082908690610920565b600a545f9060ff1615610db657604051636c24c30160e01b815260040160405180910390fd5b336001600160a01b038516610de057604051634b637e8f60e11b81525f600482015260240161055f565b6001600160a01b038416610e095760405163ec442f0560e01b81525f600482015260240161055f565b6001600160a01b038086165f908152600860209081526040808320938516835292905220b05f198114610e9a5783811015610e7057604051637dc7a0d960e11b81526001600160a01b0383166004820152602481018290526044810185905260640161055f565b6001600160a01b038087165f90815260086020908152604080832093861683529290522084820390b15b610ea5868686611090565b50600195945050505050565b5f33610ebd8282610c8b565b610eec576040516301d4003760e61b8152600481018390526001600160a01b038216602482015260440161055f565b6001600160a01b038316610f1e57604051634b637e8f60e11b81526001600160a01b038416600482015260240161055f565b610695848461123a565b7f9f2df0fed2c77648de5860a4cc508cd0818c85b8b8a1ab4ceeef8d981c8956a633610f548282610c8b565b610f83576040516301d4003760e61b8152600481018390526001600160a01b038216602482015260440161055f565b600a5460ff1615610fa757604051636c24c30160e01b815260040160405180910390fd5b61069584846112a0565b6001600160a01b038216610fda57604051634b637e8f60e11b81525f600482015260240161055f565b610fe5825f83611090565b5050565b5f670de0b6b3a76400006005b08361100191906114c6565b61060691906114dd565b6110158282610c8b565b610fe5575f8281526009602090815260408083206001600160a01b03851684529091529020805460ff1916600117905561104c3390565b6001600160a01b0316816001600160a01b0316837f2f8788117e7eff1d82e926ec794901d17c78024a50270940304540a733656f0d60405160405180910390a45050565b61109b8383836112d4565b5f6110a5826112fd565b90506001600160a01b0384166110fd578060075f8282b06110c691906114b3565b9091b150506001600160a01b0383165f90815260066020526040812080b08392906110f29084906114b3565b9091b1506111e89050565b6001600160a01b038316611191576001600160a01b0384165f908152600660205260409020b081811015611166578461113582610fe9565b60405163391434e360e21b81526001600160a01b03909216600483015260248201526044810184905260640161055f565b6001600160a01b0385165f9081526006602052604090209082900390b1600780b082900390b16111e8565b6001600160a01b0384165f908152600660205260409020b0818110156111bb578461113582610fe9565b6001600160a01b038086165f90815260066020526040808220938590039093b190851681522080b0820190b15b826001600160a01b0316846001600160a01b03167fddf252ad1be2c89b69c2b068fc378daa952ba7f163c4a11628f55a4df523b3ef8460405161122d91815260200190565b60405180910390a3610695565b6112448282610c8b565b15610fe5575f8281526009602090815260408083206001600160a01b0385168085529252808320805460ff1916905551339285917ff6391f5c32d9c69d2a47ea670b442974b53935d1edc7fd64eb21e047a839171b9190a45050565b6001600160a01b0382166112c95760405163ec442f0560e01b81525f600482015260240161055f565b610fe55f8383611090565b600a5460ff16156112f857604051636c24c30160e01b815260040160405180910390fd5b505050565b5f6005b05f0361130b575090565b6005b0611001670de0b6b3a7640000846114c6565b602081525f82518060208401528060208501604085015e5f604082850101526040601f19601f83011684010191505092915050565b6001600160a01b0381168114611369575f5ffd5b50565b5f5f6040838503121561137d575f5ffd5b823561138881611355565b946020939093013593505050565b5f5f604083850312156113a7575f5ffd5b82356113b281611355565b915060208301356113c281611355565b809150509250929050565b5f602082840312156113dd575f5ffd5b81356113e881611355565b9392505050565b5f5f5f60608486031215611401575f5ffd5b833561140c81611355565b9250602084013561141c81611355565b929592945050506040919091013590565b5f5f6040838503121561143e575f5ffd5b8235915060208301356113c281611355565b5f60208284031215611460575f5ffd5b5035919050565b600181811c9082168061147b57607f821691505b60208210810361149957634e487b7160e01b5f52602260045260245ffd5b50919050565b634e487b7160e01b5f52601160045260245ffd5b808201808211156106065761060661149f565b80820281158282048414176106065761060661149f565b5f826114f757634e487b7160e01b5f52601260045260245ffd5b50049056fea2646970667358221220bf453c90d309cb859d609e0bd535f03e1a1aeca1874c0b986a8a9f75e275210864736f6c637829302e382e32382d646576656c6f702e323032342e31322e32332b636f6d6d69742e3034376138343033005a",
    "linkReferences": {}
  },
  "methodIdentifiers": {
    "BURNER_ROLE()": "282c51f3",
    "DEFAULT_ADMIN_ROLE()": "a217fddf",
    "MINTER_ROLE()": "d5391393",
    "ORACLE_ROLE()": "07e2cea5",
    "PAUSE_ROLE()": "389ed267",
    "addRewardMultiplier(uint256)": "59ecd7fc",
    "allowance(saddress,saddress)": "5f84a3cd",
    "approve(saddress,suint256)": "88412c20",
    "balanceOf(saddress)": "221b7180",
    "burn(saddress,suint256)": "17d6dbde",
    "decimals()": "313ce567",
    "decreaseAllowance(saddress,suint256)": "14f22803",
    "emitApproval(address,address,uint256)": "5687f2b8",
    "emitTransfer(address,address,uint256)": "23de6651",
    "getCurrentRewardMultiplier()": "542dc33e",
    "grantRole(bytes32,address)": "2f2ff15d",
    "hasRole(bytes32,address)": "91d14854",
    "increaseAllowance(saddress,suint256)": "aa8beaf0",
    "mint(saddress,suint256)": "f43064fb",
    "name()": "06fdde03",
    "pause()": "8456cb59",
    "paused()": "5c975abb",
    "revokeRole(bytes32,address)": "d547741f",
    "safeAllowance(saddress,saddress)": "2176518a",
    "safeBalanceOf(saddress)": "3ab43673",
    "sharesOf(saddress)": "946db747",
    "symbol()": "95d89b41",
    "totalShares()": "3a98ef39",
    "totalSupply()": "18160ddd",
    "transfer(saddress,suint256)": "8cdb7b34",
    "transferFrom(saddress,saddress,suint256)": "be09129c",
    "unpause()": "3f4ba83a"
  },
  "id": 23
}